:0200000023C01B
:0200080094C2A0
:020012001AC210
:140026003F0006005B004F0066006D007D0007007F006F0092
:14003A000000000001000100010000000000CFE5D4E0CDBFBB
:14004E00DEBFCE51D0400AEA08830024E2E8F0E010E0E2388B
:14006200F10711F00192FBCF0083E6E2F0E0A0E6B0E010E013
:1400760000E00BBFE834F10721F0C89531960D92F9CFC5D285
:14008A00FFCF4A935A93A89AA99AAA9AAB9A44275527209025
:14009E0060003090610022BAA898A99AAA9AAB9A01E010E014
:1400B2007AD120906E0030906F0022BAA89AA998AA9AAB9ABA
:1400C60001E010E06ED1209064003090650022BAA89AA99A7C
:1400DA00AA98AB9A01E010E062D1209068003090690022BA6A
:1400EE00A89AA99AAA9AAB9801E010E056D14F5F5F4F443F1B
:14010200E1E05E0754F2A89AA99AAA9AAB9A82E090E090937A
:140116007D0080937C005991499108954A935A93A89AA99A19
:14012A00AA9AAB9A44275527209060003090610022BAA89804
:14013E00A99AAA9AAB9A01E010E02FD12090640030906500D7
:1401520022BAA89AA998AA9AAB9A01E010E023D120906A00D2
:1401660030906B0022BAA89AA99AAA98AB9A01E010E017D1B9
:14017A0020906C0030906D0022BAA89AA99AAA9AAB9801E05F
:14018E0010E00BD14F5F5F4F443FE1E05E0754F2A89AA99AC1
:1401A200AA9AAB9A83E090E090937D0080937C0059914991FA
:1401B600089581D266277727A89AA99AAA9AAB9A28EE33E0E3
:1401CA0000917E0010917F0034D2A80180E690E0FA01EE0F75
:1401DE00FF1FE80FF91F2080318022BAA898A99AAA9AAB9AA7
:1401F20001E010E0D8D024E630E000917E0010917F001BD24A
:140206002AE030E014D2780180E690E0F701EE0FFF1FE80F8B
:14021A00F91F2080318022BAA89AA998AA9AAB9A01E010E0AE
:14022E00BCD02AE030E000917E0010917F00FFD12AE030E0FD
:14024200F8D1680180E690E0F601EE0FFF1FE80FF91F2080DF
:14025600318022BAA89AA99AAA98AB9A01E010E0A0D02AE0B0
:14026A0030E000917E0010917F00DFD1580180E690E0F5016C
:14027E00EE0FFF1FE80FF91F2080318022BAA89AA99AAA9A4C
:14029200AB9801E010E087D005C220907A0030907B00C101FF
:1402A6008130E0E09E0769F08230E0E09E0771F08330E0E0EA
:1402BA009E0779F08430E0E09E0781F013C0A898A99AAA9AFE
:1402CE00AB9A0EC0A89AA998AA9AAB9A09C0A89AA99AAA986D
:1402E200AB9A04C0A89AA99AAA9AAB9808952090780030906E
:1402F600790081E090E0281639065CF088E0821593053CF01E
:14030A0091012150304001E010E0DED102BBC1CF4A935A93D5
:14031E0086B38F738F3309F435C086B38F738F3389F104E180
:1403320010E039D046B355274B33E0E05E0739F04E33E0E03C
:140346005E0709F020C050D01EC045D020907C0030907D00E9
:14035A00C1018130E0E09E0749F08230E0E09E0739F083308B
:14036E00E0E09E0729F00BC08ADE09C0D3DE07C04BD083E605
:1403820090E090937D0080937C0001E010E00BD05991499158
:1403960008950150104081E090E080179107C8F308954A93E0
:1403AA005A93A80103C007EE13E0F1DF1A01415050402220B0
:1403BE00C1F73320B1F759914991089580EC87BB8FEF88BBA8
:1403D20085BB84BB82BB81BB0895F89489B78E7F89BF83B727
:1403E600887F83BF78940895F89485E082BF89B7816089BF76
:1403FA0083B7836083BF78940895F89489B78F7B89BF85B58F
:14040E00887F85BD78940895F89483E884BD89B7806489BF44
:1404220085B5846085BD78940895F894CDDF222425BE2BBE73
:1404360029BE23BE85E082BF25BC83E884BD789408950A9272
:14044A001A922A923A924A925A926A927A928A929A920A93B5
:14045E001A932A933A938A939A93AA93BA93EA93FA930FB6B0
:140472000A9285E082BF8091740090917500019690937500EA
:14048600809374008233E0E09E07C9F58091780090917900E0
:14049A008930E0E09E0779F481E090E09093790080937800CB
:1404AE0080917A0090917B00019690937B0080937A00809140
:1404C2007A0090917B008530E0E09E0731F481E090E09093DD
:1404D6007B0080937A00222433243092750020927400A89ACE
:1404EA00A99AAA9AAB9AFFDE80917800909179000196909378
:1404FE0079008093780009900FBEF991E991B991A9919991CE
:140512008991399129911991099199908990799069905990C6
:140526004990399029901990099018950A921A922A923A92A7
:14053A004A925A926A927A928A929A920A931A932A933A93C1
:14054E008A939A93AA93BA93EA93FA930FB60A9285E084BDB4
:14056200809176009091770001969093770080937600843FE9
:14057600E1E09E07A9F52090800030908100222041F4332032
:14058A0031F481E090E09093810080938000222433243092D1
:14059E0077002092760080917E0090917F00019690937F0042
:1405B20080937E008B30E0E09E0781F430927F0020927E009E
:1405C60081E090E090937D0080937C003092810020928000AC
:1405DA0014DF08DFA89AA99AAA9AAB9A09900FBEF991E991BB
:1405EE00B991A9919991899139912991199109919990899027
:1406020079906990599049903990299019900990189580E847
:140616008FBF09DF0AC07EDE80918000909181008130E0E0D0
:14062A009E0709F4C4DDF5CF08956894DA92D12E04C0E89471
:14063E00DA92D12ED32617FF04C0109500950F5F1F4F37FF1E
:1406520004C0309520952F5F3F4F0BD0D7FE04C0109500958C
:140666000F5F1F4FD9900895689401C0E894EA92FA928A9340
:14067A00EE24FF2480E1000F111FEE1CFF1CE216F30618F079
:14068E00E21AF30A03958A95A1F716F40E2D1F2D8991F990DC
:1406A200E9900895A990B990C990D990E990F9904991599124
:1406B6006991799108957A936A935A934A93FA92EA92DA9247
:1406CA00CA92BA92AA920895222321F0000F111F2A95FACF7E
:0206DE0008957D
:00000001FF
