S01700004763634170706C69636174696F6E312E737265635B
S113000056C08AC06FC06EC06DC06CC06BC06AC081
S1130010A6C381C367C066C065C064C063C062C054
S113002061C060C05FC0BAC1C5C1D0C1DBC1E6C197
S1130030F1C1FCC107C212C21DC20600FF0901A121
S113004001150026FF00750895800900B20201C061
S113005009022200010100800A09040000010300D2
S1130060000009210101000122160007058103088F
S11300700064120110010000000834126824000119
S11300800102000114034400610074006100530084
S113009074006F007200650012036F006200640058
S11300A0650076002E006100740004030904112425
S11300B01FBECFE5D4E0DEBFCDBF10E0A0E6B0E0C8
S11300C0E2EAFAE002C005900D92A236B107D9F730
S11300D020E0A2E6B0E001C01D92AD3AB207E1F71C
S11300E0F5D2DDC48DCFA82FB92F80E090E041E098
S11300F050EA609530E009C02D9182279795879545
S113010010F084279527305EC8F36F5FA8F3089535
S1130110EADF8D939D930895CF93CFB7CF93C39583
S1130120849BE9F7849B09C0849B07C0849B05C01A
S1130130849B03C0849B01C0A3C0DF93C091900043
S1130140DD27C956DF4F849B02C0DF91EBCF2F938D
S11301500F931F9300B32FEF04FB20F94F933F93AA
S113016010B34FEF012704FB21F93BE031C04E7F70
S1130170012F10B3216028C0102F4D7F2260000092
S113018000B329C04B7F2460012F000010B32BC0A3
S113019010B3477F28602AC04F7E00B320612CC073
S11301A04F7D10B320622FC04F7B00B3206432C058
S11301B0422700B349934FEF0000102714FB20F9A6
S11301C010B31471C9F1297F91F2012704FB21F9BD
S11301D000B3237F89F2315058F1102714FB22F920
S11301E010B3277E79F2012704FB23F92F7C81F2D7
S11301F000B3102714FB24F92F7971F200C010B357
S1130200012704FB25F92F7359F200C000B310270E
S113021014FB26F9223040F200C010B3012704FB7E
S113022027F9243028F64F77206810B30000F9CF5F
S113023010E41ABF002719C03B503195C31BD040AE
S113024010E41ABF0881033CF9F00B34E9F0209163
S11302508E001981110F1213EDCF4A81441F093604
S113026041F10D3211F0013E29F7009395003F91C1
S11302704F911F910F912F91DF91CAB7C6FD4FCFB8
S1130280CF91CFBFCF91189520919500222379F378
S113029010919300112369F534306AF1309393007F
S11302A020938F00109190003BE0311B309390001D
S11302B022C0009193000130E4F40AE54F7049F440
S11302C03091610034FD19C000936100C7E7D0E0AC
S11302D018C03091820034FD10C000938200C3E83E
S11302E0D0E00FC02795A8F45150A9F4220F0000C4
S11302F0F9CF4AE503C042ED01C0432FC4E1D0E089
S113030032E011B31461949A11BB02B320E414E1F6
S11303105F93012756E002BB279520F4515021F446
S1130320220FF9CF012756E000003B5A02BBD0F25E
S1130330279528F4515029F4220F0000F9CF012702
S113034056E0279502BB20F4515021F4220FF9CF37
S1130350012756E02991332302BB21F60B7E10912D
S11303609400110FC651D04002BB11F010938E00BF
S113037010E41ABF006111B31B7E402F4B7E5F91C6
S113038000C000C002BB11BB42BB71CF8A309105D3
S113039008F07BC0FC01ED5EFF4F0994C09AC19A3E
S11303A0C29AC39AC49AC59A96989798A998AA9AF1
S11303B0AB9A0895C098C19AC29AC398C498C59834
S11303C096989798A998AA9AAB9A0895C09AC19AB0
S11303D0C298C39AC49AC598969A9798A998AA9AC3
S11303E0AB9A0895C09AC19AC29AC39AC498C59800
S11303F0969A9798A998AA9AAB9A0895C098C19A80
S1130400C29AC398C498C59A969A9798A998AA9A92
S1130410AB9A0895C09AC198C29AC39AC498C59ACF
S1130420969A9798A998AA9AAB9A0895C09AC1984F
S1130430C29AC39AC49AC59A969A9798A998AA9A5E
S1130440AB9A0895C09AC19AC29AC398C498C59A9F
S113045096989798A998AA9AAB9A0895C09AC19A1F
S1130460C29AC39AC49AC59A969A9798A998AA9A2E
S1130470AB9A0895C09AC19AC29AC398C498C59A6F
S1130480969A9798A998AA9AAB9A0895EF92FF9290
S11304900F931F93CF93DF937B018A01E901A998FE
S11304A0AA9AAB9873DFA99AAA98AB9887EB9BE0BA
S11304B00197F1F700C00000C70168DFA99AAA9864
S11304C0AB9A87EB9BE00197F1F700C00000C801ED
S11304D05DDFA99AAA9AAB9887EB9BE00197F1F7A5
S11304E000C00000CE0152DFA99AAA9AAB9A87EB0A
S11304F09BE00197F1F700C00000DF91CF911F91BD
S11305000F91FF90EF900895F89489B78B7F89BF7E
S11305108EB5887F8EBD78940895F8948FEF8DBD45
S11305201CBC89B7846089BF8EB58B7F8EBD8EB5A8
S113053082608EBD8EB58E7F8EBD78940895FC0149
S113054090916200862F961708F4892F20916300FA
S113055021110AC010823091660031831282138205
S11305601482158216821782280F20936300981B29
S113057090936200089540916200442309F451C0AD
S1130580461708F4642F5091630051113FC0FC01D9
S11305902081213089F42091660030916700232B5B
S11305A039F421E030E0309367002093660004C002
S11305B01092670010926600FC0120812230F1F451
S11305C021E030E03093650020936400218130E025
S11305D03093700020936F00228130E030937200DA
S11305E020937100238130E03093740020937300D2
S11305F0248130E03093760020937500FC018081E3
S1130600833021F41092650010926400560F5093C9
S11306106300461B4093620081E0442319F080E0AC
S1130620089581E00895FC0120812076203299F418
S11306308181813039F488E08093620010926300F4
S11306408FEF0895893049F488E080936200109216
S113065063008FEF089580E0089580E00895CF93BC
S1130660DF93009761F0EC01C2D0A89587EB9BE083
S11306700197F1F700C0000021972097A9F7DF91B7
S1130680CF9108952EE088E190E00FB6F894A895F4
S113069081BD0FBE21BD8FE387BB8FE584BB8AEE8E
S11306A081BBF0D18C9A8FEFA895E7EBFBE03197F3
S11306B0F1F700C000008150B9F78C9889B78B7F9F
S11306C089BF8EB5887F8EBD78940895DBDF84E67C
S11306D090E0C5DF8091660090916700019711F466
S11306E0A89A01C0A8988091640090916500019730
S11306F021F409B602FCEBCF10DF809164009091E5
S11307006500892B21F709B602FEE1CFFDDEA99829
S1130710AA9AAB98DCCF1F920F920FB60F921124B6
S11307208F939F9386E182BF80916B0090916C00C0
S1130730009731F0019790936C0080936B0008C090
S113074082E390E090936C0080936B00369AA895B6
S11307509F918F910F900FBE0F901F9018951F922D
S11307600F920FB60F9211242F933F934F935F93E1
S11307706F937F938F939F93AF93BF93EF93FF9365
S11307808FEF8DBD1CBC80916D0090916E00009721
S113079031F0019790936E0080936D0017C082E34F
S11307A090E090936E0080936D00209175003091DD
S11307B076004091730050917400609171007091C3
S11307C0720080916F009091700060DEFF91EF9154
S11307D0BF91AF919F918F917F916F915F914F9155
S11307E03F912F910F900FBE0F901F901895CF93AC
S11307F0DF936091930063500AF4CFC0209190007E
S11308008CE090E0821B9109EC01C956DF4F809186
S11308108F008D3209F0B0C0683009F0BCC083ECA1
S1130820809377008AE58093610010926800888144
S1130830807619F0CE01F7DE8BC09A811092800089
S11308408981811106C01092810020E830E082E0A5
S11308507BC0853031F49093940020E830E080E050
S113086073C0863009F050C08B81813041F482E737
S113087090E0909392008093910082E141C0823095
S113088041F480E590E0909392008093910082E29D
S113089037C08330F1F4911108C08AEA90E0909354
S11308A092008093910084E02BC0913041F488E958
S11308B090E0909392008093910082E121C0923065
S11308C0E1F484E890E0909392008093910084E1B5
S11308D017C0813241F482E690E0909392008093B5
S11308E0910089E00DC0823251F48AE390E0909344
S11308F092008093910086E103C080E001C080E013
S113090090E49093680024C0883099F0893031F4E1
S11309109093960020E830E080E016C08A3069F0B9
S11309208B3079F48BE48093830020E830E080E01E
S11309300BC026E930E081E007C020E830E081E028
S113094003C020E830E080E03093920020939100CF
S11309508F3F41F4988199230CF48E8190E8909311
S1130960680007C09F81911104C09E81981708F404
S1130970892F809360000FC08091680088235CF405
S1130980CE01F9DD8F3F21F48EE18093610003C035
S1130990811110926000109293008091610084FF95
S11309A05AC0809160008F3F09F455C0C82F893028
S11309B008F0C8E08C1B80936000E7E7F0E09081CA
S11309C088E889278083CC2309F453C08091680088
S11309D0882334F46C2F88E790E0B1DDC82F28C059
S11309E0209191003091920086FF10C0A8E7B0E0FA
S11309F0F9018C2F94919D9331968150D9F72F5FF3
S1130A003F4F8FEF8C0F280F311D0EC0A8E7B0E0C9
S1130A10F9018C2F91919D938150E1F72F5F3F4F06
S1130A208FEF8C0F280F311D30939200209391008B
S1130A30C93058F46C2F88E790E06ADBCC5FCC3087
S1130A4040F48FEF8093600004C08FEF80936000C8
S1130A50CEE1C093610080B3847189F483E190B3E3
S1130A60947169F48150D9F71092940010928E0019
S1130A7006C06C2F88E790E04BDBCC5FE2CFDF91C0
S1130A80CF91089585B7826085BF8BB780648BBF93
S1130A908BE4809383008AE5809382000895F89420
S1050AA0FFCF82
S1050AA2FF5AF5
S9030000FC
