:0200000025C019
:0200120040C2EA
:140026003F0006005B004F0066006D007D0007007F006F0092
:14003A00000000000000000000000000000032000000CFE5CC
:14004E00D4E0CDBFDEBFCE51D0400AEA08830024E6E8F0E051
:1400620010E0E638F10711F00192FBCF0083E6E2F0E0A0E685
:14007600B0E010E000E00BBFEC34F10721F0C89531960D9260
:14008A00F9CF67D2FFCF4A935A9386B38F738F3309F461C0AE
:14009E0086B38F738F3309F45CC004E110E0BBD146B3552762
:1400B2004733E0E05E0709F44AC04B33E0E05E0749F14D3337
:1400C600E0E05E0709F445C04E33E0E05E07E1F041C0809176
:1400DA00760090917700019690937700809376000DD180915B
:1400EE007600909177008F30E7E29E0731F42224332430923F
:140102007700209276000AE010E08BD186B38E3311F322C034
:14011600A9D120C080918200909183000196909383008093F4
:14012A00820051D080918200909183008436E0E09E0731F4A3
:14013E0022243324309283002092820004E110E06AD186B34E
:14015200873311F301C07FD101E010E062D159914991089565
:1401660080918400909185008130E0E09E0761F570D1222457
:14017A0033243092810020928000A89AA99AAA9AAB9A04EFA4
:14018E0011E049D1A898A998AA98AB9804EF11E042D1809144
:1401A200800090918100019690938100809380008330E0E0E6
:1401B6009E072CF3222433243092850020928400309277001E
:1401CA00209276000895222433243092810020928000A89A08
:1401DE00A99AAA9AAB9A28EE33E00091820010918300C4D14C
:1401F200109379000093780080E690E0F801EE0FFF1FE80FF1
:14020600F91F2080318022BAA898A99AAA9AAB9A04EF11E0AF
:14021A00FCD0A89AA99AAA9AAB9A24E630E000918200109128
:14022E008300A4D12AE030E09DD110937B0000937A0080E6AB
:1402420090E0F801EE0FFF1FE80FF91F2080318022BAA89AA6
:14025600A998AA9AAB9A04EF11E0D9D0A89AA99AAA9AAB9A2F
:14026A002AE030E0009182001091830081D12AE030E07AD178
:14027E0010937D0000937C0080E690E0F801EE0FFF1FE80F5C
:14029200F91F2080318022BAA89AA99AAA98AB9A04EF11E023
:1402A600B6D0A89AA99AAA9AAB9A2AE030E0009182001091E2
:1402BA0083005AD110937F0000937E0080E690E0F801EE0F83
:1402CE00FF1FE80FF91F2080318022BAA89AA99AAA9AAB98B6
:1402E20004EF11E096D0809180009091810001969093810050
:1402F600809380008832E0E09E070CF46CCF0895A89AA99AE5
:14030A00AA9AAB9A28EE33E000917600109177002FD110936B
:14031E0079000093780080E690E0F801EE0FFF1FE80FF91F4E
:140332002080318022BAA898A99AAA9AAB9A04E813E067D068
:14034600A89AA99AAA9AAB9A24E630E000917600109177005C
:14035A000FD12AE030E008D110937B0000937A0080E690E0BB
:14036E00F801EE0FFF1FE80FF91F2080318022BAA89AA998A8
:14038200AA9AAB9A04E813E044D0A89AA99AAA9AAB9A2AE0D3
:1403960030E00091760010917700ECD02AE030E0E5D01093F6
:1403AA007D0000937C0080E690E0F801EE0FFF1FE80FF91FBA
:1403BE0080819181806882BBA89AA99AAA98AB9A04E813E008
:1403D20020D0A89AA99AAA9AAB9A2AE030E000917600109157
:1403E6007700C4D010937F0000937E0080E690E0F801EE0FF9
:1403FA00FF1FE80FF91F2080318022BAA89AA99AAA9AAB9889
:14040E0004E813E000C00150104081E090E080179107C8F3DF
:1404220008954A935A93A80103C007EE13E0F1DF1A0141508F
:1404360050402220C1F73320B1F759914991089580EC87BB1E
:14044A008FEF88BB85BB84BB82BB81BB0895F89481E089BF13
:14045E00222423BE85E082BF78940895F89481E089BF83E07C
:1404720083BF85E082BF78940895F894E3DF222425BE2BBE85
:1404860081E089BF23BE85E082BF789408950A921A922A9285
:14049A003A924A925A926A927A928A929A920A931A932A9363
:1404AE003A938A939A93AA93BA93EA93FA930FB60A9285E0C9
:1404C20082BF80917400909175000196909375008093740014
:1404D60020908200309083008215930529F52090840030905C
:1404EA0085002220F9F43320E9F42224332430927500209294
:1404FE0074008091760090917700019790937700809376009C
:140512008030890731F481E090E09093850080938400F0DE92
:14052600A89AA99AAA9AAB9A09900FBEF991E991B991A991C5
:14053A0099918991399129911991099199908990799069905D
:14054E0059904990399029901990099018958FDFA89AA99A73
:14056200AA9AAB9A03C093DDCDDEFCDDFCCF08956894DA9275
:14057600D12E04C0E894DA92D12ED32617FF04C010950095BA
:14058A000F5F1F4F37FF04C0309520952F5F3F4F0BD0D7FE41
:14059E0004C0109500950F5F1F4FD9900895689401C0E89430
:1405B200EA92FA928A93EE24FF2480E1000F111FEE1CFF1C16
:1405C600E216F30618F0E21AF30A03958A95A1F716F40E2D9B
:0A05DA001F2D8991F990E990089512
:00000001FF
