:0200000025C019
:02001200A0C28A
:140026003F0006005B004F0066006D007D0007007F006F0092
:14003A00000000000000000000000000000000000000CFE5FE
:14004E00D4E0CDBFDEBFCE51D0400AEA08830024E6E8F0E051
:1400620010E0E638F10711F00192FBCF0083E6E2F0E0A0E685
:14007600B0E010E000E00BBFEC34F10721F0C89531960D9260
:14008A00F9CFBDD2FFCF86B38F738F3391F104E110E031D2E6
:14009E0086B38B738B3359F504E110E02AD220907800309052
:1400B2007900222081F4332071F420D080917800909179003F
:1400C6000196909379008093780004E610E015D212C08091C4
:1400DA007800909179008130E0E09E0751F4B9D0222433247F
:1400EE00309279002092780004E610E002D2089522243324B1
:14010200309283002092820022243324309285002092840056
:14011600A89AA99AAA9AAB9A28EE33E0009182001091830067
:14012A007BD210937B0000937A0080E690E0F801EE0FFF1F5F
:14013E00E80FF91F2080318022BAA898A99AAA9AAB9A01E084
:1401520010E0D5D1A89AA99AAA9AAB9A24E630E000918200C8
:14016600109183005BD22AE030E054D210937D0000937C00C5
:14017A0080E690E0F801EE0FFF1FE80FF91F2080318022BA4B
:14018E00A89AA998AA9AAB9A01E010E0B2D1A89AA99AAA9A34
:1401A200AB9A2AE030E0009182001091830038D22AE030E08F
:1401B60031D210937F0000937E0080E690E0F801EE0FFF1F15
:1401CA00E80FF91F2080318022BAA89AA99AAA98AB9A01E0F8
:1401DE0010E08FD1A89AA99AAA9AAB9A2AE030E00091820082
:1401F2001091830011D2109381000093800080E690E0F801EC
:14020600EE0FFF1FE80FF91F2080318022BAA89AA99AAA9AC4
:14021A00AB9801E010E06FD180918400909185000196909387
:14022E008500809384008431E0E09E070CF46CCF80918200B8
:1402420090918300019690938300809382008031E7E29E0713
:140256000CF458CF08958FE097E29093830080938200222467
:14026A0033243092850020928400A89AA99AAA9AAB9A28EE88
:14027E0033E00091820010918300CCD110937B0000937A005A
:1402920080E690E0F801EE0FFF1FE80FF91F2080318022BA32
:1402A600A898A99AAA9AAB9A01E010E026D1A89AA99AAA9AA7
:1402BA00AB9A24E630E00091820010918300ACD12AE030E003
:1402CE00A5D110937D0000937C0080E690E0F801EE0FFF1F8D
:1402E200E80FF91F2080318022BAA89AA998AA9AAB9A01E0DF
:1402F60010E003D1A89AA99AAA9AAB9A2AE030E000918200F5
:14030A001091830089D12AE030E082D110937F0000937E00C1
:14031E0080E690E0F801EE0FFF1FE80FF91F2080318022BAA5
:14033200A89AA99AAA98AB9A01E010E0E0D0A89AA99AAA9A61
:14034600AB9A2AE030E0009182001091830062D110938100B6
:14035A000093800080E690E0F801EE0FFF1FE80FF91F2080E3
:14036E00318022BAA89AA99AAA9AAB9801E010E0C0D0809170
:14038200840090918500019690938500809384008431E0E0F2
:140396009E070CF46CCF8091820090918300019790938300FE
:1403AA008093820089E09AE120908200309083008215930522
:1403BE000CF453CF08952090760030907700C1018130E0E0DC
:1403D2009E0709F438C08230E0E09E0709F43AC08330E0E0FC
:1403E6009E0709F43CC08430E0E09E0709F43EC08530E0E0DC
:1403FA009E0709F440C08630E0E09E0709F442C08730E0E0BC
:14040E009E0709F444C08830E0E09E0709F446C08930E0E09B
:140422009E0709F448C08A30E0E09E0709F44AC08B30E0E07B
:140436009E0709F44CC08C30E0E09E0709F44EC053C081E064
:14044A0082BBA898A99AAA9AAB9A4CC081E082BBA89AA99828
:14045E00AA9AAB9A45C081E082BBA89AA99AAA98AB9A3EC054
:1404720081E082BBA89AA99AAA9AAB9837C082E082BBA89AF4
:14048600A99AAA9AAB9830C084E082BBA89AA99AAA9AAB98FB
:14049A0029C088E082BBA89AA99AAA9AAB9822C088E082BB2D
:1404AE00A89AA99AAA98AB9A1BC088E082BBA89AA998AA9AE7
:1404C200AB9A14C088E082BBA898A99AAA9AAB9A0DC080E12E
:1404D60082BBA898A99AAA9AAB9A06C080E282BBA898A99AE1
:1404EA00AA9AAB9A08950150104081E090E080179107C8F37C
:1404FE0008954A935A93A80103C007EE13E0F1DF1A014150B3
:1405120050402220C1F73320B1F759914991089580EC87BB41
:140526008FEF88BB85BB84BB82BB81BB089581E089BF83E05F
:14053A0083BF85E082BF0895F894EEDF222425BE2BBE29BED6
:14054E00F2DF789408950A921A922A923A924A925A926A928B
:140562007A928A929A920A931A932A933A938A939A93AA93D6
:14057600BA93EA93FA930FB60A9285E082BF8091740090916D
:14058A00750001969093750080937400843FE1E09E07F1F424
:14059E00222433243092750020927400A89AA99AAA9AAB9A41
:1405B20008DF80917600909177000196909377008093760075
:1405C6008D30E0E09E0731F481E090E09093770080937600E6
:1405DA0009900FBEF991E991B991A991999189913991299157
:1405EE0019910991999089907990699059904990399029902D
:140602001990099018959CDFA89AA99AAA9AAB9A01C03DDD91
:14061600FECF08956894DA92D12E04C0E894DA92D12ED3265B
:14062A0017FF04C0109500950F5F1F4F37FF04C03095209558
:14063E002F5F3F4F0BD0D7FE04C0109500950F5F1F4FD99099
:140652000895689401C0E894EA92FA928A93EE24FF2480E103
:14066600000F111FEE1CFF1CE216F30618F0E21AF30A039592
:12067A008A95A1F716F40E2D1F2D8991F990E99008956D
:00000001FF
