:0200000014C02A
:1400260000000000CFE5D4E0CDBFDEBFCE51D0400AEA088387
:14003A000024E4E6F0E010E0E436F10711F00192FBCF008311
:14004E00E6E2F0E0A0E6B0E010E000E00BBFEA32F10721F031
:14006200C89531960D92F9CFD6D0FFCF0150104081E090E019
:1400760080179107C8F308954A935A93A80103C007EE13E0D1
:14008A00F1DF1A01415050402220C1F73320B1F7599149919D
:14009E0008954A935A938FEF88BB0AE010E0E8DF86B38F734A
:1400B2008F3309F468C004E110E0E0DF86B38E738E3381F54E
:1400C60004E110E0D9DF2224332430926100209260000CC0FB
:1400DA0080916000909161000196909361008093600002E3AC
:1400EE0010E0C6DF86B38E3389F3809160009091610084314B
:14010200E0E09E071CF08EEF85BB3AC084E190E020906000DC
:1401160030906100821593058CF18DEF85BB2EC086B38B7327
:14012A008B3351F504E110E0A5DF20906200309063002220ED
:14013E0071F4332061F483E085BBC10101969093630080930B
:14015200620004E610E092DF13C08091620090916300813071
:14016600E0E09E0759F484E085BB22243324309263002092BB
:14017A00620004E610E07EDF01E010E07BDF85B3806385BB52
:14018E000AE010E075DF83B38073803319F104E110E06EDF27
:1401A20083B380738033E1F043B35527407350704031E0E086
:1401B6005E0749F04031E0E05E075CF04032E0E05E0721F00D
:1401CA0006C087E085BB05C083E085BB02C08FEF85BB01E0EB
:1401DE0010E04EDF599149910895F89480EC87BB8FEF88BB94
:1401F2008FE384BB8FEF85BB222425BE2BBE29BE78940895E8
:14020600002711270F5F1F4F083CE0E01E07D4F30895E7DF56
:0C021A008FEF85BB01C03FDFFECF0895D1
:00000001FF
