:020000006AC0D4
:020012004CC2DE
:140026003F0006005B004F0066006D007D0007007F006F0092
:14003A007100010002000400080010002000200010000800CA
:14004E00040002000100030006000C001800300030001800F2
:140062000C00060003000100030007000F001F003F003F00BE
:140076001F000F000700030001000C001200210021001200CB
:14008A000C00010002000400080010002000100008000400FB
:14009E00020001002000100008000400020001000200040006
:1400B2000800100020000600060005000500060006000300DD
:1400C60003000B000B0000000000000000000000CFE5D4E0A5
:1400DA00CDBFDEBFCE51D0400AEA08830024E0E1F1E011E094
:1400EE00E031F10711F00192FBCF0083E6E2F0E0A0E6B0E066
:1401020010E000E00BBFE63DF10721F0C89531960D92F9CF98
:140116000DD2FFCFA89AA99AAA9AAB9A2224332430920B01AF
:14012A0020920A01FEC020900C0130900D01222019F4332019
:14013E0009F42FC0C1018130E0E09E0709F43CC08230E0E07E
:140152009E0709F44AC08330E0E09E0709F458C08430E0E04C
:140166009E0709F466C08530E0E09E0709F474C08630E0E0FC
:14017A009E0709F482C08730E0E09E0709F490C08830E0E0AC
:14018E009E0709F49EC08930E0E09E0709F4ACC0BDC086E7EC
:1401A20090E0E0910A01F0910B01EE0FFF1FE80FF91F208006
:1401B60031802094309425BA08EE13E03BD1AAC082E890E0F4
:1401CA00E0910A01F0910B01EE0FFF1FE80FF91F208031809D
:1401DE002094309425BA08EE13E028D197C08EE890E0E09126
:1401F2000A01F0910B01EE0FFF1FE80FF91F20803180209432
:14020600309425BA08EE13E015D184C088E990E0E0910A01D1
:14021A00F0910B01EE0FFF1FE80FF91F208031802094309450
:14022E0025BA08EE13E002D171C082EA90E0E0910A01F09117
:140242000B01EE0FFF1FE80FF91F208031802094309425BACA
:1402560008EE13E0EFD05EC08EEA90E0E0910A01F0910B01DD
:14026A00EE0FFF1FE80FF91F208031802094309425BA08EEB8
:14027E0013E0DCD04BC08AEB90E0E0910A01F0910B01EE0FD7
:14029200FF1FE80FF91F208031802094309425BA08EE13E09A
:1402A600C9D038C080EC90E0E0910A01F0910B01EE0FFF1FB3
:1402BA00E80FF91F208031802094309425BA08EE13E0B6D00A
:1402CE0025C086EC90E0E0910A01F0910B01EE0FFF1FE80F3A
:1402E200F91F208031802094309425BA08EE13E0A3D012C01A
:1402F6008CED90E0E0910A01F0910B01EE0FFF1FE80FF91FD8
:14030A00208031802094309425BA08EE13E090D080910A01D2
:14031E0090910B01019690930B0180930A0182EF90E0E09168
:140332000C01F0910D01EE0FFF1FE80FF91F208031804090D0
:140346000A0150900B014214530408F4EECE8FEF85BB809178
:14035A000C0190910D01019690930D0180930C018A30E0E0F1
:14036E009E0739F481E090E090930D0180930C0177D00895A3
:14038200A89AA99AAA9AAB9A20900E0130900F01222011F483
:14039600332031F0C1018130E0E09E0789F01FC0209060009F
:1403AA003090610022BAA898A998AA98AB9881E090E0909348
:1403BE000F0180930E010FC0209074003090750022BAA898B5
:1403D200A998AA98AB982224332430920F0120920E01089584
:1403E6004A935A9386B38F738F33C9F086B38F738F33A9F0ED
:1403FA0004E110E01DD046B355274B33E0E05E0741F04E3363
:14040E00E0E05E0709F004C036D080DE01C028D001E010E00A
:140422000BD05991499108950150104081E090E080179107E9
:14043600C8F308954A935A93A80103C007EE13E0F1DF1A0151
:14044A00415050402220C1F73320B1F759914991089580ECBB
:14045E0087BB8FEF88BB85BB84BB82BB81BB0895F89485E001
:1404720082BF89B7816089BF83B7836083BF78940895F89438
:1404860089B78E7F89BF83B7887F83BF78940895F894E1DF55
:14049A00222425BE2BBE29BE23BE85E082BF789408950A9289
:1404AE001A922A923A924A925A926A927A928A929A920A9351
:1404C2001A932A933A938A939A93AA93BA93EA93FA930FB64C
:1404D6000A9285E082BF8091060190910701019690930701CD
:1404EA0080930601843FE1E09E0739F4222433243092070127
:1404FE00209206013FDF09900FBEF991E991B991A9919991FB
:140512008991399129911991099199908990799069905990C6
:14052600499039902990199009901895B1DF01C057DFFECF23
:02053A00089522
:00000001FF
